{
  "contractName": "VaultHillCity",
  "abi": [
    {
      "inputs": [],
      "stateMutability": "nonpayable",
      "type": "constructor"
    },
    {
      "anonymous": false,
      "inputs": [
        {
          "indexed": true,
          "internalType": "address",
          "name": "owner",
          "type": "address"
        },
        {
          "indexed": true,
          "internalType": "address",
          "name": "spender",
          "type": "address"
        },
        {
          "indexed": false,
          "internalType": "uint256",
          "name": "value",
          "type": "uint256"
        }
      ],
      "name": "Approval",
      "type": "event"
    },
    {
      "anonymous": false,
      "inputs": [
        {
          "indexed": true,
          "internalType": "address",
          "name": "from",
          "type": "address"
        },
        {
          "indexed": true,
          "internalType": "address",
          "name": "to",
          "type": "address"
        },
        {
          "indexed": false,
          "internalType": "uint256",
          "name": "value",
          "type": "uint256"
        }
      ],
      "name": "Transfer",
      "type": "event"
    },
    {
      "inputs": [
        {
          "internalType": "address",
          "name": "owner",
          "type": "address"
        },
        {
          "internalType": "address",
          "name": "spender",
          "type": "address"
        }
      ],
      "name": "allowance",
      "outputs": [
        {
          "internalType": "uint256",
          "name": "",
          "type": "uint256"
        }
      ],
      "stateMutability": "view",
      "type": "function"
    },
    {
      "inputs": [
        {
          "internalType": "address",
          "name": "spender",
          "type": "address"
        },
        {
          "internalType": "uint256",
          "name": "amount",
          "type": "uint256"
        }
      ],
      "name": "approve",
      "outputs": [
        {
          "internalType": "bool",
          "name": "",
          "type": "bool"
        }
      ],
      "stateMutability": "nonpayable",
      "type": "function"
    },
    {
      "inputs": [
        {
          "internalType": "address",
          "name": "account",
          "type": "address"
        }
      ],
      "name": "balanceOf",
      "outputs": [
        {
          "internalType": "uint256",
          "name": "",
          "type": "uint256"
        }
      ],
      "stateMutability": "view",
      "type": "function"
    },
    {
      "inputs": [],
      "name": "decimals",
      "outputs": [
        {
          "internalType": "uint8",
          "name": "",
          "type": "uint8"
        }
      ],
      "stateMutability": "view",
      "type": "function"
    },
    {
      "inputs": [
        {
          "internalType": "address",
          "name": "spender",
          "type": "address"
        },
        {
          "internalType": "uint256",
          "name": "subtractedValue",
          "type": "uint256"
        }
      ],
      "name": "decreaseAllowance",
      "outputs": [
        {
          "internalType": "bool",
          "name": "",
          "type": "bool"
        }
      ],
      "stateMutability": "nonpayable",
      "type": "function"
    },
    {
      "inputs": [
        {
          "internalType": "address",
          "name": "spender",
          "type": "address"
        },
        {
          "internalType": "uint256",
          "name": "addedValue",
          "type": "uint256"
        }
      ],
      "name": "increaseAllowance",
      "outputs": [
        {
          "internalType": "bool",
          "name": "",
          "type": "bool"
        }
      ],
      "stateMutability": "nonpayable",
      "type": "function"
    },
    {
      "inputs": [],
      "name": "name",
      "outputs": [
        {
          "internalType": "string",
          "name": "",
          "type": "string"
        }
      ],
      "stateMutability": "view",
      "type": "function"
    },
    {
      "inputs": [],
      "name": "symbol",
      "outputs": [
        {
          "internalType": "string",
          "name": "",
          "type": "string"
        }
      ],
      "stateMutability": "view",
      "type": "function"
    },
    {
      "inputs": [],
      "name": "totalSupply",
      "outputs": [
        {
          "internalType": "uint256",
          "name": "",
          "type": "uint256"
        }
      ],
      "stateMutability": "view",
      "type": "function"
    },
    {
      "inputs": [
        {
          "internalType": "address",
          "name": "recipient",
          "type": "address"
        },
        {
          "internalType": "uint256",
          "name": "amount",
          "type": "uint256"
        }
      ],
      "name": "transfer",
      "outputs": [
        {
          "internalType": "bool",
          "name": "",
          "type": "bool"
        }
      ],
      "stateMutability": "nonpayable",
      "type": "function"
    },
    {
      "inputs": [
        {
          "internalType": "address",
          "name": "sender",
          "type": "address"
        },
        {
          "internalType": "address",
          "name": "recipient",
          "type": "address"
        },
        {
          "internalType": "uint256",
          "name": "amount",
          "type": "uint256"
        }
      ],
      "name": "transferFrom",
      "outputs": [
        {
          "internalType": "bool",
          "name": "",
          "type": "bool"
        }
      ],
      "stateMutability": "nonpayable",
      "type": "function"
    },
    {
      "inputs": [
        {
          "internalType": "uint256",
          "name": "_amount",
          "type": "uint256"
        }
      ],
      "name": "burnTokens",
      "outputs": [],
      "stateMutability": "nonpayable",
      "type": "function"
    }
  ],
  "bytecode": "0x60806040523480156200001157600080fd5b506040518060400160405280600f81526020017f5661756c742048696c6c204369747900000000000000000000000000000000008152506040518060400160405280600381526020017f564843000000000000000000000000000000000000000000000000000000000081525081600390805190602001906200009692919062000287565b508060049080519060200190620000af92919062000287565b505050620000f533620000c7620000fb60201b60201c565b60ff16600a620000d8919062000477565b631443fd00620000e99190620005b4565b6200010460201b60201c565b620006e9565b60006012905090565b600073ffffffffffffffffffffffffffffffffffffffff168273ffffffffffffffffffffffffffffffffffffffff16141562000177576040517f08c379a00000000000000000000000000000000000000000000000000000000081526004016200016e906200036f565b60405180910390fd5b6200018b600083836200027d60201b60201c565b80600260008282546200019f9190620003bf565b92505081905550806000808473ffffffffffffffffffffffffffffffffffffffff1673ffffffffffffffffffffffffffffffffffffffff1681526020019081526020016000206000828254620001f69190620003bf565b925050819055508173ffffffffffffffffffffffffffffffffffffffff16600073ffffffffffffffffffffffffffffffffffffffff167fddf252ad1be2c89b69c2b068fc378daa952ba7f163c4a11628f55a4df523b3ef836040516200025d919062000391565b60405180910390a362000279600083836200028260201b60201c565b5050565b505050565b505050565b82805462000295906200061f565b90600052602060002090601f016020900481019282620002b9576000855562000305565b82601f10620002d457805160ff191683800117855562000305565b8280016001018555821562000305579182015b8281111562000304578251825591602001919060010190620002e7565b5b50905062000314919062000318565b5090565b5b808211156200033357600081600090555060010162000319565b5090565b600062000346601f83620003ae565b91506200035382620006c0565b602082019050919050565b620003698162000615565b82525050565b600060208201905081810360008301526200038a8162000337565b9050919050565b6000602082019050620003a860008301846200035e565b92915050565b600082825260208201905092915050565b6000620003cc8262000615565b9150620003d98362000615565b9250827fffffffffffffffffffffffffffffffffffffffffffffffffffffffffffffffff0382111562000411576200041062000655565b5b828201905092915050565b6000808291508390505b60018511156200046e5780860481111562000446576200044562000655565b5b6001851615620004565780820291505b80810290506200046685620006b3565b945062000426565b94509492505050565b6000620004848262000615565b9150620004918362000615565b9250620004c07fffffffffffffffffffffffffffffffffffffffffffffffffffffffffffffffff8484620004c8565b905092915050565b600082620004da5760019050620005ad565b81620004ea5760009050620005ad565b81600181146200050357600281146200050e5762000544565b6001915050620005ad565b60ff84111562000523576200052262000655565b5b8360020a9150848211156200053d576200053c62000655565b5b50620005ad565b5060208310610133831016604e8410600b84101617156200057e5782820a90508381111562000578576200057762000655565b5b620005ad565b6200058d84848460016200041c565b92509050818404811115620005a757620005a662000655565b5b81810290505b9392505050565b6000620005c18262000615565b9150620005ce8362000615565b9250817fffffffffffffffffffffffffffffffffffffffffffffffffffffffffffffffff04831182151516156200060a576200060962000655565b5b828202905092915050565b6000819050919050565b600060028204905060018216806200063857607f821691505b602082108114156200064f576200064e62000684565b5b50919050565b7f4e487b7100000000000000000000000000000000000000000000000000000000600052601160045260246000fd5b7f4e487b7100000000000000000000000000000000000000000000000000000000600052602260045260246000fd5b60008160011c9050919050565b7f45524332303a206d696e7420746f20746865207a65726f206164647265737300600082015250565b61172180620006f96000396000f3fe608060405234801561001057600080fd5b50600436106100b45760003560e01c80636d1b229d116100715780636d1b229d146101a357806370a08231146101bf57806395d89b41146101ef578063a457c2d71461020d578063a9059cbb1461023d578063dd62ed3e1461026d576100b4565b806306fdde03146100b9578063095ea7b3146100d757806318160ddd1461010757806323b872dd14610125578063313ce567146101555780633950935114610173575b600080fd5b6100c161029d565b6040516100ce91906110af565b60405180910390f35b6100f160048036038101906100ec9190610e8e565b61032f565b6040516100fe9190611094565b60405180910390f35b61010f61034d565b60405161011c91906111f1565b60405180910390f35b61013f600480360381019061013a9190610e3f565b610357565b60405161014c9190611094565b60405180910390f35b61015d61044f565b60405161016a919061120c565b60405180910390f35b61018d60048036038101906101889190610e8e565b610458565b60405161019a9190611094565b60405180910390f35b6101bd60048036038101906101b89190610eca565b610504565b005b6101d960048036038101906101d49190610dda565b610511565b6040516101e691906111f1565b60405180910390f35b6101f7610559565b60405161020491906110af565b60405180910390f35b61022760048036038101906102229190610e8e565b6105eb565b6040516102349190611094565b60405180910390f35b61025760048036038101906102529190610e8e565b6106d6565b6040516102649190611094565b60405180910390f35b61028760048036038101906102829190610e03565b6106f4565b60405161029491906111f1565b60405180910390f35b6060600380546102ac90611355565b80601f01602080910402602001604051908101604052809291908181526020018280546102d890611355565b80156103255780601f106102fa57610100808354040283529160200191610325565b820191906000526020600020905b81548152906001019060200180831161030857829003601f168201915b5050505050905090565b600061034361033c61077b565b8484610783565b6001905092915050565b6000600254905090565b600061036484848461094e565b6000600160008673ffffffffffffffffffffffffffffffffffffffff1673ffffffffffffffffffffffffffffffffffffffff16815260200190815260200160002060006103af61077b565b73ffffffffffffffffffffffffffffffffffffffff1673ffffffffffffffffffffffffffffffffffffffff1681526020019081526020016000205490508281101561042f576040517f08c379a000000000000000000000000000000000000000000000000000000000815260040161042690611151565b60405180910390fd5b6104438561043b61077b565b858403610783565b60019150509392505050565b60006012905090565b60006104fa61046561077b565b84846001600061047361077b565b73ffffffffffffffffffffffffffffffffffffffff1673ffffffffffffffffffffffffffffffffffffffff16815260200190815260200160002060008873ffffffffffffffffffffffffffffffffffffffff1673ffffffffffffffffffffffffffffffffffffffff168152602001908152602001600020546104f59190611243565b610783565b6001905092915050565b61050e3382610bcf565b50565b60008060008373ffffffffffffffffffffffffffffffffffffffff1673ffffffffffffffffffffffffffffffffffffffff168152602001908152602001600020549050919050565b60606004805461056890611355565b80601f016020809104026020016040519081016040528092919081815260200182805461059490611355565b80156105e15780601f106105b6576101008083540402835291602001916105e1565b820191906000526020600020905b8154815290600101906020018083116105c457829003601f168201915b5050505050905090565b600080600160006105fa61077b565b73ffffffffffffffffffffffffffffffffffffffff1673ffffffffffffffffffffffffffffffffffffffff16815260200190815260200160002060008573ffffffffffffffffffffffffffffffffffffffff1673ffffffffffffffffffffffffffffffffffffffff168152602001908152602001600020549050828110156106b7576040517f08c379a00000000000000000000000000000000000000000000000000000000081526004016106ae906111d1565b60405180910390fd5b6106cb6106c261077b565b85858403610783565b600191505092915050565b60006106ea6106e361077b565b848461094e565b6001905092915050565b6000600160008473ffffffffffffffffffffffffffffffffffffffff1673ffffffffffffffffffffffffffffffffffffffff16815260200190815260200160002060008373ffffffffffffffffffffffffffffffffffffffff1673ffffffffffffffffffffffffffffffffffffffff16815260200190815260200160002054905092915050565b600033905090565b600073ffffffffffffffffffffffffffffffffffffffff168373ffffffffffffffffffffffffffffffffffffffff1614156107f3576040517f08c379a00000000000000000000000000000000000000000000000000000000081526004016107ea906111b1565b60405180910390fd5b600073ffffffffffffffffffffffffffffffffffffffff168273ffffffffffffffffffffffffffffffffffffffff161415610863576040517f08c379a000000000000000000000000000000000000000000000000000000000815260040161085a90611111565b60405180910390fd5b80600160008573ffffffffffffffffffffffffffffffffffffffff1673ffffffffffffffffffffffffffffffffffffffff16815260200190815260200160002060008473ffffffffffffffffffffffffffffffffffffffff1673ffffffffffffffffffffffffffffffffffffffff168152602001908152602001600020819055508173ffffffffffffffffffffffffffffffffffffffff168373ffffffffffffffffffffffffffffffffffffffff167f8c5be1e5ebec7d5bd14f71427d1e84f3dd0314c0f7b2291e5b200ac8c7c3b9258360405161094191906111f1565b60405180910390a3505050565b600073ffffffffffffffffffffffffffffffffffffffff168373ffffffffffffffffffffffffffffffffffffffff1614156109be576040517f08c379a00000000000000000000000000000000000000000000000000000000081526004016109b590611191565b60405180910390fd5b600073ffffffffffffffffffffffffffffffffffffffff168273ffffffffffffffffffffffffffffffffffffffff161415610a2e576040517f08c379a0000000000000000000000000000000000000000000000000000000008152600401610a25906110d1565b60405180910390fd5b610a39838383610da6565b60008060008573ffffffffffffffffffffffffffffffffffffffff1673ffffffffffffffffffffffffffffffffffffffff16815260200190815260200160002054905081811015610abf576040517f08c379a0000000000000000000000000000000000000000000000000000000008152600401610ab690611131565b60405180910390fd5b8181036000808673ffffffffffffffffffffffffffffffffffffffff1673ffffffffffffffffffffffffffffffffffffffff16815260200190815260200160002081905550816000808573ffffffffffffffffffffffffffffffffffffffff1673ffffffffffffffffffffffffffffffffffffffff1681526020019081526020016000206000828254610b529190611243565b925050819055508273ffffffffffffffffffffffffffffffffffffffff168473ffffffffffffffffffffffffffffffffffffffff167fddf252ad1be2c89b69c2b068fc378daa952ba7f163c4a11628f55a4df523b3ef84604051610bb691906111f1565b60405180910390a3610bc9848484610dab565b50505050565b600073ffffffffffffffffffffffffffffffffffffffff168273ffffffffffffffffffffffffffffffffffffffff161415610c3f576040517f08c379a0000000000000000000000000000000000000000000000000000000008152600401610c3690611171565b60405180910390fd5b610c4b82600083610da6565b60008060008473ffffffffffffffffffffffffffffffffffffffff1673ffffffffffffffffffffffffffffffffffffffff16815260200190815260200160002054905081811015610cd1576040517f08c379a0000000000000000000000000000000000000000000000000000000008152600401610cc8906110f1565b60405180910390fd5b8181036000808573ffffffffffffffffffffffffffffffffffffffff1673ffffffffffffffffffffffffffffffffffffffff168152602001908152602001600020819055508160026000828254610d289190611299565b92505081905550600073ffffffffffffffffffffffffffffffffffffffff168373ffffffffffffffffffffffffffffffffffffffff167fddf252ad1be2c89b69c2b068fc378daa952ba7f163c4a11628f55a4df523b3ef84604051610d8d91906111f1565b60405180910390a3610da183600084610dab565b505050565b505050565b505050565b600081359050610dbf816116bd565b92915050565b600081359050610dd4816116d4565b92915050565b600060208284031215610dec57600080fd5b6000610dfa84828501610db0565b91505092915050565b60008060408385031215610e1657600080fd5b6000610e2485828601610db0565b9250506020610e3585828601610db0565b9150509250929050565b600080600060608486031215610e5457600080fd5b6000610e6286828701610db0565b9350506020610e7386828701610db0565b9250506040610e8486828701610dc5565b9150509250925092565b60008060408385031215610ea157600080fd5b6000610eaf85828601610db0565b9250506020610ec085828601610dc5565b9150509250929050565b600060208284031215610edc57600080fd5b6000610eea84828501610dc5565b91505092915050565b610efc816112df565b82525050565b6000610f0d82611227565b610f178185611232565b9350610f27818560208601611322565b610f30816113e5565b840191505092915050565b6000610f48602383611232565b9150610f53826113f6565b604082019050919050565b6000610f6b602283611232565b9150610f7682611445565b604082019050919050565b6000610f8e602283611232565b9150610f9982611494565b604082019050919050565b6000610fb1602683611232565b9150610fbc826114e3565b604082019050919050565b6000610fd4602883611232565b9150610fdf82611532565b604082019050919050565b6000610ff7602183611232565b915061100282611581565b604082019050919050565b600061101a602583611232565b9150611025826115d0565b604082019050919050565b600061103d602483611232565b91506110488261161f565b604082019050919050565b6000611060602583611232565b915061106b8261166e565b604082019050919050565b61107f8161130b565b82525050565b61108e81611315565b82525050565b60006020820190506110a96000830184610ef3565b92915050565b600060208201905081810360008301526110c98184610f02565b905092915050565b600060208201905081810360008301526110ea81610f3b565b9050919050565b6000602082019050818103600083015261110a81610f5e565b9050919050565b6000602082019050818103600083015261112a81610f81565b9050919050565b6000602082019050818103600083015261114a81610fa4565b9050919050565b6000602082019050818103600083015261116a81610fc7565b9050919050565b6000602082019050818103600083015261118a81610fea565b9050919050565b600060208201905081810360008301526111aa8161100d565b9050919050565b600060208201905081810360008301526111ca81611030565b9050919050565b600060208201905081810360008301526111ea81611053565b9050919050565b60006020820190506112066000830184611076565b92915050565b60006020820190506112216000830184611085565b92915050565b600081519050919050565b600082825260208201905092915050565b600061124e8261130b565b91506112598361130b565b9250827fffffffffffffffffffffffffffffffffffffffffffffffffffffffffffffffff0382111561128e5761128d611387565b5b828201905092915050565b60006112a48261130b565b91506112af8361130b565b9250828210156112c2576112c1611387565b5b828203905092915050565b60006112d8826112eb565b9050919050565b60008115159050919050565b600073ffffffffffffffffffffffffffffffffffffffff82169050919050565b6000819050919050565b600060ff82169050919050565b60005b83811015611340578082015181840152602081019050611325565b8381111561134f576000848401525b50505050565b6000600282049050600182168061136d57607f821691505b60208210811415611381576113806113b6565b5b50919050565b7f4e487b7100000000000000000000000000000000000000000000000000000000600052601160045260246000fd5b7f4e487b7100000000000000000000000000000000000000000000000000000000600052602260045260246000fd5b6000601f19601f8301169050919050565b7f45524332303a207472616e7366657220746f20746865207a65726f206164647260008201527f6573730000000000000000000000000000000000000000000000000000000000602082015250565b7f45524332303a206275726e20616d6f756e7420657863656564732062616c616e60008201527f6365000000000000000000000000000000000000000000000000000000000000602082015250565b7f45524332303a20617070726f766520746f20746865207a65726f20616464726560008201527f7373000000000000000000000000000000000000000000000000000000000000602082015250565b7f45524332303a207472616e7366657220616d6f756e742065786365656473206260008201527f616c616e63650000000000000000000000000000000000000000000000000000602082015250565b7f45524332303a207472616e7366657220616d6f756e742065786365656473206160008201527f6c6c6f77616e6365000000000000000000000000000000000000000000000000602082015250565b7f45524332303a206275726e2066726f6d20746865207a65726f2061646472657360008201527f7300000000000000000000000000000000000000000000000000000000000000602082015250565b7f45524332303a207472616e736665722066726f6d20746865207a65726f20616460008201527f6472657373000000000000000000000000000000000000000000000000000000602082015250565b7f45524332303a20617070726f76652066726f6d20746865207a65726f2061646460008201527f7265737300000000000000000000000000000000000000000000000000000000602082015250565b7f45524332303a2064656372656173656420616c6c6f77616e63652062656c6f7760008201527f207a65726f000000000000000000000000000000000000000000000000000000602082015250565b6116c6816112cd565b81146116d157600080fd5b50565b6116dd8161130b565b81146116e857600080fd5b5056fea2646970667358221220e8ce15dbb576dd022617b20735646bd288b4552fa77095a30b714039ea5498ed64736f6c63430008040033",
  "immutableReferences": {},
  "source": "// SPDX-License-Identifier: unlicenced\r\npragma solidity ^0.8.4;\r\n\r\nimport \"@openzeppelin/contracts/token/ERC20/ERC20.sol\";\r\nimport \"@openzeppelin/contracts/access/Ownable.sol\";\r\n\r\ncontract VaultHillCity is ERC20 {\r\n    constructor() ERC20(\"Vault Hill City\", \"VHC\") {\r\n        _mint(msg.sender, 340000000 * 10 ** uint256(decimals()));\r\n    }\r\n    function burnTokens(uint256 _amount) public {\r\n        _burn(msg.sender, _amount);\r\n    }\r\n}",
  "sourcePath": "I:\\Vault Hill Limited\\ERC-20 Contract\\contracts\\VaultHillCity.sol",
  "compiler": {
    "name": "solc",
    "version": "0.8.4+commit.c7e474f2.Emscripten.clang"
  },
  "schemaVersion": "3.4.2",
  "updatedAt": "2021-09-07T11:25:59.813Z",
  "devdoc": {
    "kind": "dev",
    "methods": {
      "allowance(address,address)": {
        "details": "See {IERC20-allowance}."
      },
      "approve(address,uint256)": {
        "details": "See {IERC20-approve}. Requirements: - `spender` cannot be the zero address."
      },
      "balanceOf(address)": {
        "details": "See {IERC20-balanceOf}."
      },
      "decimals()": {
        "details": "Returns the number of decimals used to get its user representation. For example, if `decimals` equals `2`, a balance of `505` tokens should be displayed to a user as `5.05` (`505 / 10 ** 2`). Tokens usually opt for a value of 18, imitating the relationship between Ether and Wei. This is the value {ERC20} uses, unless this function is overridden; NOTE: This information is only used for _display_ purposes: it in no way affects any of the arithmetic of the contract, including {IERC20-balanceOf} and {IERC20-transfer}."
      },
      "decreaseAllowance(address,uint256)": {
        "details": "Atomically decreases the allowance granted to `spender` by the caller. This is an alternative to {approve} that can be used as a mitigation for problems described in {IERC20-approve}. Emits an {Approval} event indicating the updated allowance. Requirements: - `spender` cannot be the zero address. - `spender` must have allowance for the caller of at least `subtractedValue`."
      },
      "increaseAllowance(address,uint256)": {
        "details": "Atomically increases the allowance granted to `spender` by the caller. This is an alternative to {approve} that can be used as a mitigation for problems described in {IERC20-approve}. Emits an {Approval} event indicating the updated allowance. Requirements: - `spender` cannot be the zero address."
      },
      "name()": {
        "details": "Returns the name of the token."
      },
      "symbol()": {
        "details": "Returns the symbol of the token, usually a shorter version of the name."
      },
      "totalSupply()": {
        "details": "See {IERC20-totalSupply}."
      },
      "transfer(address,uint256)": {
        "details": "See {IERC20-transfer}. Requirements: - `recipient` cannot be the zero address. - the caller must have a balance of at least `amount`."
      },
      "transferFrom(address,address,uint256)": {
        "details": "See {IERC20-transferFrom}. Emits an {Approval} event indicating the updated allowance. This is not required by the EIP. See the note at the beginning of {ERC20}. Requirements: - `sender` and `recipient` cannot be the zero address. - `sender` must have a balance of at least `amount`. - the caller must have allowance for ``sender``'s tokens of at least `amount`."
      }
    },
    "version": 1
  },
  "userdoc": {
    "kind": "user",
    "methods": {},
    "version": 1
  }
}