{
  "contractName": "VaultHillCity",
  "abi": [
    {
      "inputs": [],
      "stateMutability": "nonpayable",
      "type": "constructor"
    },
    {
      "anonymous": false,
      "inputs": [
        {
          "indexed": true,
          "internalType": "address",
          "name": "owner",
          "type": "address"
        },
        {
          "indexed": true,
          "internalType": "address",
          "name": "spender",
          "type": "address"
        },
        {
          "indexed": false,
          "internalType": "uint256",
          "name": "value",
          "type": "uint256"
        }
      ],
      "name": "Approval",
      "type": "event"
    },
    {
      "anonymous": false,
      "inputs": [
        {
          "indexed": true,
          "internalType": "address",
          "name": "previousOwner",
          "type": "address"
        },
        {
          "indexed": true,
          "internalType": "address",
          "name": "newOwner",
          "type": "address"
        }
      ],
      "name": "OwnershipTransferred",
      "type": "event"
    },
    {
      "anonymous": false,
      "inputs": [
        {
          "indexed": false,
          "internalType": "address",
          "name": "account",
          "type": "address"
        }
      ],
      "name": "Paused",
      "type": "event"
    },
    {
      "anonymous": false,
      "inputs": [
        {
          "indexed": true,
          "internalType": "address",
          "name": "from",
          "type": "address"
        },
        {
          "indexed": true,
          "internalType": "address",
          "name": "to",
          "type": "address"
        },
        {
          "indexed": false,
          "internalType": "uint256",
          "name": "value",
          "type": "uint256"
        }
      ],
      "name": "Transfer",
      "type": "event"
    },
    {
      "anonymous": false,
      "inputs": [
        {
          "indexed": false,
          "internalType": "address",
          "name": "account",
          "type": "address"
        }
      ],
      "name": "Unpaused",
      "type": "event"
    },
    {
      "inputs": [
        {
          "internalType": "address",
          "name": "owner",
          "type": "address"
        },
        {
          "internalType": "address",
          "name": "spender",
          "type": "address"
        }
      ],
      "name": "allowance",
      "outputs": [
        {
          "internalType": "uint256",
          "name": "",
          "type": "uint256"
        }
      ],
      "stateMutability": "view",
      "type": "function"
    },
    {
      "inputs": [
        {
          "internalType": "address",
          "name": "spender",
          "type": "address"
        },
        {
          "internalType": "uint256",
          "name": "amount",
          "type": "uint256"
        }
      ],
      "name": "approve",
      "outputs": [
        {
          "internalType": "bool",
          "name": "",
          "type": "bool"
        }
      ],
      "stateMutability": "nonpayable",
      "type": "function"
    },
    {
      "inputs": [
        {
          "internalType": "address",
          "name": "account",
          "type": "address"
        }
      ],
      "name": "balanceOf",
      "outputs": [
        {
          "internalType": "uint256",
          "name": "",
          "type": "uint256"
        }
      ],
      "stateMutability": "view",
      "type": "function"
    },
    {
      "inputs": [],
      "name": "decimals",
      "outputs": [
        {
          "internalType": "uint8",
          "name": "",
          "type": "uint8"
        }
      ],
      "stateMutability": "view",
      "type": "function"
    },
    {
      "inputs": [
        {
          "internalType": "address",
          "name": "spender",
          "type": "address"
        },
        {
          "internalType": "uint256",
          "name": "subtractedValue",
          "type": "uint256"
        }
      ],
      "name": "decreaseAllowance",
      "outputs": [
        {
          "internalType": "bool",
          "name": "",
          "type": "bool"
        }
      ],
      "stateMutability": "nonpayable",
      "type": "function"
    },
    {
      "inputs": [
        {
          "internalType": "address",
          "name": "spender",
          "type": "address"
        },
        {
          "internalType": "uint256",
          "name": "addedValue",
          "type": "uint256"
        }
      ],
      "name": "increaseAllowance",
      "outputs": [
        {
          "internalType": "bool",
          "name": "",
          "type": "bool"
        }
      ],
      "stateMutability": "nonpayable",
      "type": "function"
    },
    {
      "inputs": [],
      "name": "name",
      "outputs": [
        {
          "internalType": "string",
          "name": "",
          "type": "string"
        }
      ],
      "stateMutability": "view",
      "type": "function"
    },
    {
      "inputs": [],
      "name": "owner",
      "outputs": [
        {
          "internalType": "address",
          "name": "",
          "type": "address"
        }
      ],
      "stateMutability": "view",
      "type": "function"
    },
    {
      "inputs": [],
      "name": "paused",
      "outputs": [
        {
          "internalType": "bool",
          "name": "",
          "type": "bool"
        }
      ],
      "stateMutability": "view",
      "type": "function"
    },
    {
      "inputs": [],
      "name": "renounceOwnership",
      "outputs": [],
      "stateMutability": "nonpayable",
      "type": "function"
    },
    {
      "inputs": [],
      "name": "symbol",
      "outputs": [
        {
          "internalType": "string",
          "name": "",
          "type": "string"
        }
      ],
      "stateMutability": "view",
      "type": "function"
    },
    {
      "inputs": [],
      "name": "totalSupply",
      "outputs": [
        {
          "internalType": "uint256",
          "name": "",
          "type": "uint256"
        }
      ],
      "stateMutability": "view",
      "type": "function"
    },
    {
      "inputs": [
        {
          "internalType": "address",
          "name": "recipient",
          "type": "address"
        },
        {
          "internalType": "uint256",
          "name": "amount",
          "type": "uint256"
        }
      ],
      "name": "transfer",
      "outputs": [
        {
          "internalType": "bool",
          "name": "",
          "type": "bool"
        }
      ],
      "stateMutability": "nonpayable",
      "type": "function"
    },
    {
      "inputs": [
        {
          "internalType": "address",
          "name": "sender",
          "type": "address"
        },
        {
          "internalType": "address",
          "name": "recipient",
          "type": "address"
        },
        {
          "internalType": "uint256",
          "name": "amount",
          "type": "uint256"
        }
      ],
      "name": "transferFrom",
      "outputs": [
        {
          "internalType": "bool",
          "name": "",
          "type": "bool"
        }
      ],
      "stateMutability": "nonpayable",
      "type": "function"
    },
    {
      "inputs": [
        {
          "internalType": "address",
          "name": "newOwner",
          "type": "address"
        }
      ],
      "name": "transferOwnership",
      "outputs": [],
      "stateMutability": "nonpayable",
      "type": "function"
    },
    {
      "inputs": [
        {
          "internalType": "uint256",
          "name": "_amount",
          "type": "uint256"
        }
      ],
      "name": "burnTokens",
      "outputs": [],
      "stateMutability": "nonpayable",
      "type": "function"
    },
    {
      "inputs": [],
      "name": "freezeTransfers",
      "outputs": [],
      "stateMutability": "nonpayable",
      "type": "function"
    },
    {
      "inputs": [],
      "name": "unFreezeTransfers",
      "outputs": [],
      "stateMutability": "nonpayable",
      "type": "function"
    }
  ],
  "bytecode": "0x60806040523480156200001157600080fd5b506040518060400160405280600f81526020017f5661756c742048696c6c204369747900000000000000000000000000000000008152506040518060400160405280600381526020017f564843000000000000000000000000000000000000000000000000000000000081525081600390805190602001906200009692919062000417565b508060049080519060200190620000af92919062000417565b5050506000600560006101000a81548160ff021916908315150217905550620000ed620000e16200013660201b60201c565b6200013e60201b60201c565b6200013033620001026200020460201b60201c565b60ff16600a62000113919062000650565b631443fd006200012491906200078d565b6200020d60201b60201c565b62000911565b600033905090565b6000600560019054906101000a900473ffffffffffffffffffffffffffffffffffffffff16905081600560016101000a81548173ffffffffffffffffffffffffffffffffffffffff021916908373ffffffffffffffffffffffffffffffffffffffff1602179055508173ffffffffffffffffffffffffffffffffffffffff168173ffffffffffffffffffffffffffffffffffffffff167f8be0079c531659141344cd1fd0a4f28419497f9722a3daafe3b4186f6b6457e060405160405180910390a35050565b60006012905090565b600073ffffffffffffffffffffffffffffffffffffffff168273ffffffffffffffffffffffffffffffffffffffff16141562000280576040517f08c379a0000000000000000000000000000000000000000000000000000000008152600401620002779062000526565b60405180910390fd5b62000294600083836200038660201b60201c565b8060026000828254620002a8919062000598565b92505081905550806000808473ffffffffffffffffffffffffffffffffffffffff1673ffffffffffffffffffffffffffffffffffffffff1681526020019081526020016000206000828254620002ff919062000598565b925050819055508173ffffffffffffffffffffffffffffffffffffffff16600073ffffffffffffffffffffffffffffffffffffffff167fddf252ad1be2c89b69c2b068fc378daa952ba7f163c4a11628f55a4df523b3ef836040516200036691906200056a565b60405180910390a36200038260008383620003f660201b60201c565b5050565b6200039e838383620003fb60201b62000b201760201c565b620003ae6200040060201b60201c565b15620003f1576040517f08c379a0000000000000000000000000000000000000000000000000000000008152600401620003e89062000548565b60405180910390fd5b505050565b505050565b505050565b6000600560009054906101000a900460ff16905090565b8280546200042590620007f8565b90600052602060002090601f01602090048101928262000449576000855562000495565b82601f106200046457805160ff191683800117855562000495565b8280016001018555821562000495579182015b828111156200049457825182559160200191906001019062000477565b5b509050620004a49190620004a8565b5090565b5b80821115620004c3576000816000905550600101620004a9565b5090565b6000620004d6601f8362000587565b9150620004e38262000899565b602082019050919050565b6000620004fd602a8362000587565b91506200050a82620008c2565b604082019050919050565b6200052081620007ee565b82525050565b600060208201905081810360008301526200054181620004c7565b9050919050565b600060208201905081810360008301526200056381620004ee565b9050919050565b600060208201905062000581600083018462000515565b92915050565b600082825260208201905092915050565b6000620005a582620007ee565b9150620005b283620007ee565b9250827fffffffffffffffffffffffffffffffffffffffffffffffffffffffffffffffff03821115620005ea57620005e96200082e565b5b828201905092915050565b6000808291508390505b600185111562000647578086048111156200061f576200061e6200082e565b5b60018516156200062f5780820291505b80810290506200063f856200088c565b9450620005ff565b94509492505050565b60006200065d82620007ee565b91506200066a83620007ee565b9250620006997fffffffffffffffffffffffffffffffffffffffffffffffffffffffffffffffff8484620006a1565b905092915050565b600082620006b3576001905062000786565b81620006c3576000905062000786565b8160018114620006dc5760028114620006e7576200071d565b600191505062000786565b60ff841115620006fc57620006fb6200082e565b5b8360020a9150848211156200071657620007156200082e565b5b5062000786565b5060208310610133831016604e8410600b8410161715620007575782820a9050838111156200075157620007506200082e565b5b62000786565b620007668484846001620005f5565b9250905081840481111562000780576200077f6200082e565b5b81810290505b9392505050565b60006200079a82620007ee565b9150620007a783620007ee565b9250817fffffffffffffffffffffffffffffffffffffffffffffffffffffffffffffffff0483118215151615620007e357620007e26200082e565b5b828202905092915050565b6000819050919050565b600060028204905060018216806200081157607f821691505b602082108114156200082857620008276200085d565b5b50919050565b7f4e487b7100000000000000000000000000000000000000000000000000000000600052601160045260246000fd5b7f4e487b7100000000000000000000000000000000000000000000000000000000600052602260045260246000fd5b60008160011c9050919050565b7f45524332303a206d696e7420746f20746865207a65726f206164647265737300600082015250565b7f45524332305061757361626c653a20746f6b656e207472616e7366657220776860008201527f696c652070617573656400000000000000000000000000000000000000000000602082015250565b611fbb80620009216000396000f3fe608060405234801561001057600080fd5b50600436106101165760003560e01c806370a08231116100a25780639eb81bd0116100715780639eb81bd0146102bf578063a457c2d7146102c9578063a9059cbb146102f9578063dd62ed3e14610329578063f2fde38b1461035957610116565b806370a0823114610249578063715018a6146102795780638da5cb5b1461028357806395d89b41146102a157610116565b806323b872dd116100e957806323b872dd14610191578063313ce567146101c157806339509351146101df5780635c975abb1461020f5780636d1b229d1461022d57610116565b8063015024601461011b57806306fdde0314610125578063095ea7b31461014357806318160ddd14610173575b600080fd5b610123610375565b005b61012d6103fb565b60405161013a9190611790565b60405180910390f35b61015d60048036038101906101589190611496565b61048d565b60405161016a9190611775565b60405180910390f35b61017b6104ab565b6040516101889190611972565b60405180910390f35b6101ab60048036038101906101a69190611447565b6104b5565b6040516101b89190611775565b60405180910390f35b6101c96105ad565b6040516101d6919061198d565b60405180910390f35b6101f960048036038101906101f49190611496565b6105b6565b6040516102069190611775565b60405180910390f35b610217610662565b6040516102249190611775565b60405180910390f35b610247600480360381019061024291906114d2565b610679565b005b610263600480360381019061025e91906113e2565b610686565b6040516102709190611972565b60405180910390f35b6102816106ce565b005b61028b610756565b604051610298919061175a565b60405180910390f35b6102a9610780565b6040516102b69190611790565b60405180910390f35b6102c7610812565b005b6102e360048036038101906102de9190611496565b610898565b6040516102f09190611775565b60405180910390f35b610313600480360381019061030e9190611496565b610983565b6040516103209190611775565b60405180910390f35b610343600480360381019061033e919061140b565b6109a1565b6040516103509190611972565b60405180910390f35b610373600480360381019061036e91906113e2565b610a28565b005b61037d610b25565b73ffffffffffffffffffffffffffffffffffffffff1661039b610756565b73ffffffffffffffffffffffffffffffffffffffff16146103f1576040517f08c379a00000000000000000000000000000000000000000000000000000000081526004016103e8906118b2565b60405180910390fd5b6103f9610b2d565b565b60606003805461040a90611ad6565b80601f016020809104026020016040519081016040528092919081815260200182805461043690611ad6565b80156104835780601f1061045857610100808354040283529160200191610483565b820191906000526020600020905b81548152906001019060200180831161046657829003601f168201915b5050505050905090565b60006104a161049a610b25565b8484610bd0565b6001905092915050565b6000600254905090565b60006104c2848484610d9b565b6000600160008673ffffffffffffffffffffffffffffffffffffffff1673ffffffffffffffffffffffffffffffffffffffff168152602001908152602001600020600061050d610b25565b73ffffffffffffffffffffffffffffffffffffffff1673ffffffffffffffffffffffffffffffffffffffff1681526020019081526020016000205490508281101561058d576040517f08c379a000000000000000000000000000000000000000000000000000000000815260040161058490611892565b60405180910390fd5b6105a185610599610b25565b858403610bd0565b60019150509392505050565b60006012905090565b60006106586105c3610b25565b8484600160006105d1610b25565b73ffffffffffffffffffffffffffffffffffffffff1673ffffffffffffffffffffffffffffffffffffffff16815260200190815260200160002060008873ffffffffffffffffffffffffffffffffffffffff1673ffffffffffffffffffffffffffffffffffffffff1681526020019081526020016000205461065391906119c4565b610bd0565b6001905092915050565b6000600560009054906101000a900460ff16905090565b610683338261101c565b50565b60008060008373ffffffffffffffffffffffffffffffffffffffff1673ffffffffffffffffffffffffffffffffffffffff168152602001908152602001600020549050919050565b6106d6610b25565b73ffffffffffffffffffffffffffffffffffffffff166106f4610756565b73ffffffffffffffffffffffffffffffffffffffff161461074a576040517f08c379a0000000000000000000000000000000000000000000000000000000008152600401610741906118b2565b60405180910390fd5b61075460006111f3565b565b6000600560019054906101000a900473ffffffffffffffffffffffffffffffffffffffff16905090565b60606004805461078f90611ad6565b80601f01602080910402602001604051908101604052809291908181526020018280546107bb90611ad6565b80156108085780601f106107dd57610100808354040283529160200191610808565b820191906000526020600020905b8154815290600101906020018083116107eb57829003601f168201915b5050505050905090565b61081a610b25565b73ffffffffffffffffffffffffffffffffffffffff16610838610756565b73ffffffffffffffffffffffffffffffffffffffff161461088e576040517f08c379a0000000000000000000000000000000000000000000000000000000008152600401610885906118b2565b60405180910390fd5b6108966112b9565b565b600080600160006108a7610b25565b73ffffffffffffffffffffffffffffffffffffffff1673ffffffffffffffffffffffffffffffffffffffff16815260200190815260200160002060008573ffffffffffffffffffffffffffffffffffffffff1673ffffffffffffffffffffffffffffffffffffffff16815260200190815260200160002054905082811015610964576040517f08c379a000000000000000000000000000000000000000000000000000000000815260040161095b90611932565b60405180910390fd5b61097861096f610b25565b85858403610bd0565b600191505092915050565b6000610997610990610b25565b8484610d9b565b6001905092915050565b6000600160008473ffffffffffffffffffffffffffffffffffffffff1673ffffffffffffffffffffffffffffffffffffffff16815260200190815260200160002060008373ffffffffffffffffffffffffffffffffffffffff1673ffffffffffffffffffffffffffffffffffffffff16815260200190815260200160002054905092915050565b610a30610b25565b73ffffffffffffffffffffffffffffffffffffffff16610a4e610756565b73ffffffffffffffffffffffffffffffffffffffff1614610aa4576040517f08c379a0000000000000000000000000000000000000000000000000000000008152600401610a9b906118b2565b60405180910390fd5b600073ffffffffffffffffffffffffffffffffffffffff168173ffffffffffffffffffffffffffffffffffffffff161415610b14576040517f08c379a0000000000000000000000000000000000000000000000000000000008152600401610b0b90611812565b60405180910390fd5b610b1d816111f3565b50565b505050565b600033905090565b610b35610662565b15610b75576040517f08c379a0000000000000000000000000000000000000000000000000000000008152600401610b6c90611872565b60405180910390fd5b6001600560006101000a81548160ff0219169083151502179055507f62e78cea01bee320cd4e420270b5ea74000d11b0c9f74754ebdbfc544b05a258610bb9610b25565b604051610bc6919061175a565b60405180910390a1565b600073ffffffffffffffffffffffffffffffffffffffff168373ffffffffffffffffffffffffffffffffffffffff161415610c40576040517f08c379a0000000000000000000000000000000000000000000000000000000008152600401610c3790611912565b60405180910390fd5b600073ffffffffffffffffffffffffffffffffffffffff168273ffffffffffffffffffffffffffffffffffffffff161415610cb0576040517f08c379a0000000000000000000000000000000000000000000000000000000008152600401610ca790611832565b60405180910390fd5b80600160008573ffffffffffffffffffffffffffffffffffffffff1673ffffffffffffffffffffffffffffffffffffffff16815260200190815260200160002060008473ffffffffffffffffffffffffffffffffffffffff1673ffffffffffffffffffffffffffffffffffffffff168152602001908152602001600020819055508173ffffffffffffffffffffffffffffffffffffffff168373ffffffffffffffffffffffffffffffffffffffff167f8c5be1e5ebec7d5bd14f71427d1e84f3dd0314c0f7b2291e5b200ac8c7c3b92583604051610d8e9190611972565b60405180910390a3505050565b600073ffffffffffffffffffffffffffffffffffffffff168373ffffffffffffffffffffffffffffffffffffffff161415610e0b576040517f08c379a0000000000000000000000000000000000000000000000000000000008152600401610e02906118f2565b60405180910390fd5b600073ffffffffffffffffffffffffffffffffffffffff168273ffffffffffffffffffffffffffffffffffffffff161415610e7b576040517f08c379a0000000000000000000000000000000000000000000000000000000008152600401610e72906117b2565b60405180910390fd5b610e8683838361135b565b60008060008573ffffffffffffffffffffffffffffffffffffffff1673ffffffffffffffffffffffffffffffffffffffff16815260200190815260200160002054905081811015610f0c576040517f08c379a0000000000000000000000000000000000000000000000000000000008152600401610f0390611852565b60405180910390fd5b8181036000808673ffffffffffffffffffffffffffffffffffffffff1673ffffffffffffffffffffffffffffffffffffffff16815260200190815260200160002081905550816000808573ffffffffffffffffffffffffffffffffffffffff1673ffffffffffffffffffffffffffffffffffffffff1681526020019081526020016000206000828254610f9f91906119c4565b925050819055508273ffffffffffffffffffffffffffffffffffffffff168473ffffffffffffffffffffffffffffffffffffffff167fddf252ad1be2c89b69c2b068fc378daa952ba7f163c4a11628f55a4df523b3ef846040516110039190611972565b60405180910390a36110168484846113b3565b50505050565b600073ffffffffffffffffffffffffffffffffffffffff168273ffffffffffffffffffffffffffffffffffffffff16141561108c576040517f08c379a0000000000000000000000000000000000000000000000000000000008152600401611083906118d2565b60405180910390fd5b6110988260008361135b565b60008060008473ffffffffffffffffffffffffffffffffffffffff1673ffffffffffffffffffffffffffffffffffffffff1681526020019081526020016000205490508181101561111e576040517f08c379a0000000000000000000000000000000000000000000000000000000008152600401611115906117f2565b60405180910390fd5b8181036000808573ffffffffffffffffffffffffffffffffffffffff1673ffffffffffffffffffffffffffffffffffffffff1681526020019081526020016000208190555081600260008282546111759190611a1a565b92505081905550600073ffffffffffffffffffffffffffffffffffffffff168373ffffffffffffffffffffffffffffffffffffffff167fddf252ad1be2c89b69c2b068fc378daa952ba7f163c4a11628f55a4df523b3ef846040516111da9190611972565b60405180910390a36111ee836000846113b3565b505050565b6000600560019054906101000a900473ffffffffffffffffffffffffffffffffffffffff16905081600560016101000a81548173ffffffffffffffffffffffffffffffffffffffff021916908373ffffffffffffffffffffffffffffffffffffffff1602179055508173ffffffffffffffffffffffffffffffffffffffff168173ffffffffffffffffffffffffffffffffffffffff167f8be0079c531659141344cd1fd0a4f28419497f9722a3daafe3b4186f6b6457e060405160405180910390a35050565b6112c1610662565b611300576040517f08c379a00000000000000000000000000000000000000000000000000000000081526004016112f7906117d2565b60405180910390fd5b6000600560006101000a81548160ff0219169083151502179055507f5db9ee0a495bf2e6ff9c91a7834c1ba4fdd244a5e8aa4e537bd38aeae4b073aa611344610b25565b604051611351919061175a565b60405180910390a1565b611366838383610b20565b61136e610662565b156113ae576040517f08c379a00000000000000000000000000000000000000000000000000000000081526004016113a590611952565b60405180910390fd5b505050565b505050565b6000813590506113c781611f57565b92915050565b6000813590506113dc81611f6e565b92915050565b6000602082840312156113f457600080fd5b6000611402848285016113b8565b91505092915050565b6000806040838503121561141e57600080fd5b600061142c858286016113b8565b925050602061143d858286016113b8565b9150509250929050565b60008060006060848603121561145c57600080fd5b600061146a868287016113b8565b935050602061147b868287016113b8565b925050604061148c868287016113cd565b9150509250925092565b600080604083850312156114a957600080fd5b60006114b7858286016113b8565b92505060206114c8858286016113cd565b9150509250929050565b6000602082840312156114e457600080fd5b60006114f2848285016113cd565b91505092915050565b61150481611a4e565b82525050565b61151381611a60565b82525050565b6000611524826119a8565b61152e81856119b3565b935061153e818560208601611aa3565b61154781611b66565b840191505092915050565b600061155f6023836119b3565b915061156a82611b77565b604082019050919050565b60006115826014836119b3565b915061158d82611bc6565b602082019050919050565b60006115a56022836119b3565b91506115b082611bef565b604082019050919050565b60006115c86026836119b3565b91506115d382611c3e565b604082019050919050565b60006115eb6022836119b3565b91506115f682611c8d565b604082019050919050565b600061160e6026836119b3565b915061161982611cdc565b604082019050919050565b60006116316010836119b3565b915061163c82611d2b565b602082019050919050565b60006116546028836119b3565b915061165f82611d54565b604082019050919050565b60006116776020836119b3565b915061168282611da3565b602082019050919050565b600061169a6021836119b3565b91506116a582611dcc565b604082019050919050565b60006116bd6025836119b3565b91506116c882611e1b565b604082019050919050565b60006116e06024836119b3565b91506116eb82611e6a565b604082019050919050565b60006117036025836119b3565b915061170e82611eb9565b604082019050919050565b6000611726602a836119b3565b915061173182611f08565b604082019050919050565b61174581611a8c565b82525050565b61175481611a96565b82525050565b600060208201905061176f60008301846114fb565b92915050565b600060208201905061178a600083018461150a565b92915050565b600060208201905081810360008301526117aa8184611519565b905092915050565b600060208201905081810360008301526117cb81611552565b9050919050565b600060208201905081810360008301526117eb81611575565b9050919050565b6000602082019050818103600083015261180b81611598565b9050919050565b6000602082019050818103600083015261182b816115bb565b9050919050565b6000602082019050818103600083015261184b816115de565b9050919050565b6000602082019050818103600083015261186b81611601565b9050919050565b6000602082019050818103600083015261188b81611624565b9050919050565b600060208201905081810360008301526118ab81611647565b9050919050565b600060208201905081810360008301526118cb8161166a565b9050919050565b600060208201905081810360008301526118eb8161168d565b9050919050565b6000602082019050818103600083015261190b816116b0565b9050919050565b6000602082019050818103600083015261192b816116d3565b9050919050565b6000602082019050818103600083015261194b816116f6565b9050919050565b6000602082019050818103600083015261196b81611719565b9050919050565b6000602082019050611987600083018461173c565b92915050565b60006020820190506119a2600083018461174b565b92915050565b600081519050919050565b600082825260208201905092915050565b60006119cf82611a8c565b91506119da83611a8c565b9250827fffffffffffffffffffffffffffffffffffffffffffffffffffffffffffffffff03821115611a0f57611a0e611b08565b5b828201905092915050565b6000611a2582611a8c565b9150611a3083611a8c565b925082821015611a4357611a42611b08565b5b828203905092915050565b6000611a5982611a6c565b9050919050565b60008115159050919050565b600073ffffffffffffffffffffffffffffffffffffffff82169050919050565b6000819050919050565b600060ff82169050919050565b60005b83811015611ac1578082015181840152602081019050611aa6565b83811115611ad0576000848401525b50505050565b60006002820490506001821680611aee57607f821691505b60208210811415611b0257611b01611b37565b5b50919050565b7f4e487b7100000000000000000000000000000000000000000000000000000000600052601160045260246000fd5b7f4e487b7100000000000000000000000000000000000000000000000000000000600052602260045260246000fd5b6000601f19601f8301169050919050565b7f45524332303a207472616e7366657220746f20746865207a65726f206164647260008201527f6573730000000000000000000000000000000000000000000000000000000000602082015250565b7f5061757361626c653a206e6f7420706175736564000000000000000000000000600082015250565b7f45524332303a206275726e20616d6f756e7420657863656564732062616c616e60008201527f6365000000000000000000000000000000000000000000000000000000000000602082015250565b7f4f776e61626c653a206e6577206f776e657220697320746865207a65726f206160008201527f6464726573730000000000000000000000000000000000000000000000000000602082015250565b7f45524332303a20617070726f766520746f20746865207a65726f20616464726560008201527f7373000000000000000000000000000000000000000000000000000000000000602082015250565b7f45524332303a207472616e7366657220616d6f756e742065786365656473206260008201527f616c616e63650000000000000000000000000000000000000000000000000000602082015250565b7f5061757361626c653a2070617573656400000000000000000000000000000000600082015250565b7f45524332303a207472616e7366657220616d6f756e742065786365656473206160008201527f6c6c6f77616e6365000000000000000000000000000000000000000000000000602082015250565b7f4f776e61626c653a2063616c6c6572206973206e6f7420746865206f776e6572600082015250565b7f45524332303a206275726e2066726f6d20746865207a65726f2061646472657360008201527f7300000000000000000000000000000000000000000000000000000000000000602082015250565b7f45524332303a207472616e736665722066726f6d20746865207a65726f20616460008201527f6472657373000000000000000000000000000000000000000000000000000000602082015250565b7f45524332303a20617070726f76652066726f6d20746865207a65726f2061646460008201527f7265737300000000000000000000000000000000000000000000000000000000602082015250565b7f45524332303a2064656372656173656420616c6c6f77616e63652062656c6f7760008201527f207a65726f000000000000000000000000000000000000000000000000000000602082015250565b7f45524332305061757361626c653a20746f6b656e207472616e7366657220776860008201527f696c652070617573656400000000000000000000000000000000000000000000602082015250565b611f6081611a4e565b8114611f6b57600080fd5b50565b611f7781611a8c565b8114611f8257600080fd5b5056fea2646970667358221220b1d0068b4404235b7352aecd7ac26f2d54403759cee70f51ba2179c13d2ad75c64736f6c63430008040033",
  "immutableReferences": {},
  "source": "// SPDX-License-Identifier: unlicenced\r\n// File: https://github.com/OpenZeppelin/openzeppelin-contracts/blob/master/contracts/utils/Context.sol\r\n\r\n\r\n\r\npragma solidity ^0.8.0;\r\n\r\n/**\r\n * @dev Provides information about the current execution context, including the\r\n * sender of the transaction and its data. While these are generally available\r\n * via msg.sender and msg.data, they should not be accessed in such a direct\r\n * manner, since when dealing with meta-transactions the account sending and\r\n * paying for execution may not be the actual sender (as far as an application\r\n * is concerned).\r\n *\r\n * This contract is only required for intermediate, library-like contracts.\r\n */\r\nabstract contract Context {\r\n    function _msgSender() internal view virtual returns (address) {\r\n        return msg.sender;\r\n    }\r\n\r\n    function _msgData() internal view virtual returns (bytes calldata) {\r\n        return msg.data;\r\n    }\r\n}\r\n\r\n\r\n// File: https://github.com/OpenZeppelin/openzeppelin-contracts/blob/master/contracts/access/Ownable.sol\r\n\r\n\r\n\r\npragma solidity ^0.8.0;\r\n\r\n\r\n/**\r\n * @dev Contract module which provides a basic access control mechanism, where\r\n * there is an account (an owner) that can be granted exclusive access to\r\n * specific functions.\r\n *\r\n * By default, the owner account will be the one that deploys the contract. This\r\n * can later be changed with {transferOwnership}.\r\n *\r\n * This module is used through inheritance. It will make available the modifier\r\n * `onlyOwner`, which can be applied to your functions to restrict their use to\r\n * the owner.\r\n */\r\nabstract contract Ownable is Context {\r\n    address private _owner;\r\n\r\n    event OwnershipTransferred(address indexed previousOwner, address indexed newOwner);\r\n\r\n    /**\r\n     * @dev Initializes the contract setting the deployer as the initial owner.\r\n     */\r\n    constructor() {\r\n        _setOwner(_msgSender());\r\n    }\r\n\r\n    /**\r\n     * @dev Returns the address of the current owner.\r\n     */\r\n    function owner() public view virtual returns (address) {\r\n        return _owner;\r\n    }\r\n\r\n    /**\r\n     * @dev Throws if called by any account other than the owner.\r\n     */\r\n    modifier onlyOwner() {\r\n        require(owner() == _msgSender(), \"Ownable: caller is not the owner\");\r\n        _;\r\n    }\r\n\r\n    /**\r\n     * @dev Leaves the contract without owner. It will not be possible to call\r\n     * `onlyOwner` functions anymore. Can only be called by the current owner.\r\n     *\r\n     * NOTE: Renouncing ownership will leave the contract without an owner,\r\n     * thereby removing any functionality that is only available to the owner.\r\n     */\r\n    function renounceOwnership() public virtual onlyOwner {\r\n        _setOwner(address(0));\r\n    }\r\n\r\n    /**\r\n     * @dev Transfers ownership of the contract to a new account (`newOwner`).\r\n     * Can only be called by the current owner.\r\n     */\r\n    function transferOwnership(address newOwner) public virtual onlyOwner {\r\n        require(newOwner != address(0), \"Ownable: new owner is the zero address\");\r\n        _setOwner(newOwner);\r\n    }\r\n\r\n    function _setOwner(address newOwner) private {\r\n        address oldOwner = _owner;\r\n        _owner = newOwner;\r\n        emit OwnershipTransferred(oldOwner, newOwner);\r\n    }\r\n}\r\n\r\n// File: https://github.com/OpenZeppelin/openzeppelin-contracts/blob/master/contracts/security/Pausable.sol\r\n\r\n\r\n\r\npragma solidity ^0.8.0;\r\n\r\n\r\n/**\r\n * @dev Contract module which allows children to implement an emergency stop\r\n * mechanism that can be triggered by an authorized account.\r\n *\r\n * This module is used through inheritance. It will make available the\r\n * modifiers `whenNotPaused` and `whenPaused`, which can be applied to\r\n * the functions of your contract. Note that they will not be pausable by\r\n * simply including this module, only once the modifiers are put in place.\r\n */\r\nabstract contract Pausable is Context {\r\n    /**\r\n     * @dev Emitted when the pause is triggered by `account`.\r\n     */\r\n    event Paused(address account);\r\n\r\n    /**\r\n     * @dev Emitted when the pause is lifted by `account`.\r\n     */\r\n    event Unpaused(address account);\r\n\r\n    bool private _paused;\r\n\r\n    /**\r\n     * @dev Initializes the contract in unpaused state.\r\n     */\r\n    constructor() {\r\n        _paused = false;\r\n    }\r\n\r\n    /**\r\n     * @dev Returns true if the contract is paused, and false otherwise.\r\n     */\r\n    function paused() public view virtual returns (bool) {\r\n        return _paused;\r\n    }\r\n\r\n    /**\r\n     * @dev Modifier to make a function callable only when the contract is not paused.\r\n     *\r\n     * Requirements:\r\n     *\r\n     * - The contract must not be paused.\r\n     */\r\n    modifier whenNotPaused() {\r\n        require(!paused(), \"Pausable: paused\");\r\n        _;\r\n    }\r\n\r\n    /**\r\n     * @dev Modifier to make a function callable only when the contract is paused.\r\n     *\r\n     * Requirements:\r\n     *\r\n     * - The contract must be paused.\r\n     */\r\n    modifier whenPaused() {\r\n        require(paused(), \"Pausable: not paused\");\r\n        _;\r\n    }\r\n\r\n    /**\r\n     * @dev Triggers stopped state.\r\n     *\r\n     * Requirements:\r\n     *\r\n     * - The contract must not be paused.\r\n     */\r\n    function _pause() internal virtual whenNotPaused {\r\n        _paused = true;\r\n        emit Paused(_msgSender());\r\n    }\r\n\r\n    /**\r\n     * @dev Returns to normal state.\r\n     *\r\n     * Requirements:\r\n     *\r\n     * - The contract must be paused.\r\n     */\r\n    function _unpause() internal virtual whenPaused {\r\n        _paused = false;\r\n        emit Unpaused(_msgSender());\r\n    }\r\n}\r\n\r\n\r\n// File: https://github.com/OpenZeppelin/openzeppelin-contracts/blob/master/contracts/token/ERC20/IERC20.sol\r\n\r\n\r\n\r\npragma solidity ^0.8.0;\r\n\r\n/**\r\n * @dev Interface of the ERC20 standard as defined in the EIP.\r\n */\r\ninterface IERC20 {\r\n    /**\r\n     * @dev Returns the amount of tokens in existence.\r\n     */\r\n    function totalSupply() external view returns (uint256);\r\n\r\n    /**\r\n     * @dev Returns the amount of tokens owned by `account`.\r\n     */\r\n    function balanceOf(address account) external view returns (uint256);\r\n\r\n    /**\r\n     * @dev Moves `amount` tokens from the caller's account to `recipient`.\r\n     *\r\n     * Returns a boolean value indicating whether the operation succeeded.\r\n     *\r\n     * Emits a {Transfer} event.\r\n     */\r\n    function transfer(address recipient, uint256 amount) external returns (bool);\r\n\r\n    /**\r\n     * @dev Returns the remaining number of tokens that `spender` will be\r\n     * allowed to spend on behalf of `owner` through {transferFrom}. This is\r\n     * zero by default.\r\n     *\r\n     * This value changes when {approve} or {transferFrom} are called.\r\n     */\r\n    function allowance(address owner, address spender) external view returns (uint256);\r\n\r\n    /**\r\n     * @dev Sets `amount` as the allowance of `spender` over the caller's tokens.\r\n     *\r\n     * Returns a boolean value indicating whether the operation succeeded.\r\n     *\r\n     * IMPORTANT: Beware that changing an allowance with this method brings the risk\r\n     * that someone may use both the old and the new allowance by unfortunate\r\n     * transaction ordering. One possible solution to mitigate this race\r\n     * condition is to first reduce the spender's allowance to 0 and set the\r\n     * desired value afterwards:\r\n     * https://github.com/ethereum/EIPs/issues/20#issuecomment-263524729\r\n     *\r\n     * Emits an {Approval} event.\r\n     */\r\n    function approve(address spender, uint256 amount) external returns (bool);\r\n\r\n    /**\r\n     * @dev Moves `amount` tokens from `sender` to `recipient` using the\r\n     * allowance mechanism. `amount` is then deducted from the caller's\r\n     * allowance.\r\n     *\r\n     * Returns a boolean value indicating whether the operation succeeded.\r\n     *\r\n     * Emits a {Transfer} event.\r\n     */\r\n    function transferFrom(\r\n        address sender,\r\n        address recipient,\r\n        uint256 amount\r\n    ) external returns (bool);\r\n\r\n    /**\r\n     * @dev Emitted when `value` tokens are moved from one account (`from`) to\r\n     * another (`to`).\r\n     *\r\n     * Note that `value` may be zero.\r\n     */\r\n    event Transfer(address indexed from, address indexed to, uint256 value);\r\n\r\n    /**\r\n     * @dev Emitted when the allowance of a `spender` for an `owner` is set by\r\n     * a call to {approve}. `value` is the new allowance.\r\n     */\r\n    event Approval(address indexed owner, address indexed spender, uint256 value);\r\n}\r\n\r\n// File: https://github.com/OpenZeppelin/openzeppelin-contracts/blob/master/contracts/token/ERC20/extensions/IERC20Metadata.sol\r\n\r\n\r\n\r\npragma solidity ^0.8.0;\r\n\r\n\r\n/**\r\n * @dev Interface for the optional metadata functions from the ERC20 standard.\r\n *\r\n * _Available since v4.1._\r\n */\r\ninterface IERC20Metadata is IERC20 {\r\n    /**\r\n     * @dev Returns the name of the token.\r\n     */\r\n    function name() external view returns (string memory);\r\n\r\n    /**\r\n     * @dev Returns the symbol of the token.\r\n     */\r\n    function symbol() external view returns (string memory);\r\n\r\n    /**\r\n     * @dev Returns the decimals places of the token.\r\n     */\r\n    function decimals() external view returns (uint8);\r\n}\r\n\r\n\r\n// File: https://github.com/OpenZeppelin/openzeppelin-contracts/blob/master/contracts/token/ERC20/ERC20.sol\r\n\r\n\r\n\r\npragma solidity ^0.8.0;\r\n\r\n\r\n\r\n\r\n/**\r\n * @dev Implementation of the {IERC20} interface.\r\n *\r\n * This implementation is agnostic to the way tokens are created. This means\r\n * that a supply mechanism has to be added in a derived contract using {_mint}.\r\n * For a generic mechanism see {ERC20PresetMinterPauser}.\r\n *\r\n * TIP: For a detailed writeup see our guide\r\n * https://forum.zeppelin.solutions/t/how-to-implement-erc20-supply-mechanisms/226[How\r\n * to implement supply mechanisms].\r\n *\r\n * We have followed general OpenZeppelin Contracts guidelines: functions revert\r\n * instead returning `false` on failure. This behavior is nonetheless\r\n * conventional and does not conflict with the expectations of ERC20\r\n * applications.\r\n *\r\n * Additionally, an {Approval} event is emitted on calls to {transferFrom}.\r\n * This allows applications to reconstruct the allowance for all accounts just\r\n * by listening to said events. Other implementations of the EIP may not emit\r\n * these events, as it isn't required by the specification.\r\n *\r\n * Finally, the non-standard {decreaseAllowance} and {increaseAllowance}\r\n * functions have been added to mitigate the well-known issues around setting\r\n * allowances. See {IERC20-approve}.\r\n */\r\ncontract ERC20 is Context, IERC20, IERC20Metadata {\r\n    mapping(address => uint256) private _balances;\r\n\r\n    mapping(address => mapping(address => uint256)) private _allowances;\r\n\r\n    uint256 private _totalSupply;\r\n\r\n    string private _name;\r\n    string private _symbol;\r\n\r\n    /**\r\n     * @dev Sets the values for {name} and {symbol}.\r\n     *\r\n     * The default value of {decimals} is 18. To select a different value for\r\n     * {decimals} you should overload it.\r\n     *\r\n     * All two of these values are immutable: they can only be set once during\r\n     * construction.\r\n     */\r\n    constructor(string memory name_, string memory symbol_) {\r\n        _name = name_;\r\n        _symbol = symbol_;\r\n    }\r\n\r\n    /**\r\n     * @dev Returns the name of the token.\r\n     */\r\n    function name() public view virtual override returns (string memory) {\r\n        return _name;\r\n    }\r\n\r\n    /**\r\n     * @dev Returns the symbol of the token, usually a shorter version of the\r\n     * name.\r\n     */\r\n    function symbol() public view virtual override returns (string memory) {\r\n        return _symbol;\r\n    }\r\n\r\n    /**\r\n     * @dev Returns the number of decimals used to get its user representation.\r\n     * For example, if `decimals` equals `2`, a balance of `505` tokens should\r\n     * be displayed to a user as `5.05` (`505 / 10 ** 2`).\r\n     *\r\n     * Tokens usually opt for a value of 18, imitating the relationship between\r\n     * Ether and Wei. This is the value {ERC20} uses, unless this function is\r\n     * overridden;\r\n     *\r\n     * NOTE: This information is only used for _display_ purposes: it in\r\n     * no way affects any of the arithmetic of the contract, including\r\n     * {IERC20-balanceOf} and {IERC20-transfer}.\r\n     */\r\n    function decimals() public view virtual override returns (uint8) {\r\n        return 18;\r\n    }\r\n\r\n    /**\r\n     * @dev See {IERC20-totalSupply}.\r\n     */\r\n    function totalSupply() public view virtual override returns (uint256) {\r\n        return _totalSupply;\r\n    }\r\n\r\n    /**\r\n     * @dev See {IERC20-balanceOf}.\r\n     */\r\n    function balanceOf(address account) public view virtual override returns (uint256) {\r\n        return _balances[account];\r\n    }\r\n\r\n    /**\r\n     * @dev See {IERC20-transfer}.\r\n     *\r\n     * Requirements:\r\n     *\r\n     * - `recipient` cannot be the zero address.\r\n     * - the caller must have a balance of at least `amount`.\r\n     */\r\n    function transfer(address recipient, uint256 amount) public virtual override returns (bool) {\r\n        _transfer(_msgSender(), recipient, amount);\r\n        return true;\r\n    }\r\n\r\n    /**\r\n     * @dev See {IERC20-allowance}.\r\n     */\r\n    function allowance(address owner, address spender) public view virtual override returns (uint256) {\r\n        return _allowances[owner][spender];\r\n    }\r\n\r\n    /**\r\n     * @dev See {IERC20-approve}.\r\n     *\r\n     * Requirements:\r\n     *\r\n     * - `spender` cannot be the zero address.\r\n     */\r\n    function approve(address spender, uint256 amount) public virtual override returns (bool) {\r\n        _approve(_msgSender(), spender, amount);\r\n        return true;\r\n    }\r\n\r\n    /**\r\n     * @dev See {IERC20-transferFrom}.\r\n     *\r\n     * Emits an {Approval} event indicating the updated allowance. This is not\r\n     * required by the EIP. See the note at the beginning of {ERC20}.\r\n     *\r\n     * Requirements:\r\n     *\r\n     * - `sender` and `recipient` cannot be the zero address.\r\n     * - `sender` must have a balance of at least `amount`.\r\n     * - the caller must have allowance for ``sender``'s tokens of at least\r\n     * `amount`.\r\n     */\r\n    function transferFrom(\r\n        address sender,\r\n        address recipient,\r\n        uint256 amount\r\n    ) public virtual override returns (bool) {\r\n        _transfer(sender, recipient, amount);\r\n\r\n        uint256 currentAllowance = _allowances[sender][_msgSender()];\r\n        require(currentAllowance >= amount, \"ERC20: transfer amount exceeds allowance\");\r\n        unchecked {\r\n            _approve(sender, _msgSender(), currentAllowance - amount);\r\n        }\r\n\r\n        return true;\r\n    }\r\n\r\n    /**\r\n     * @dev Atomically increases the allowance granted to `spender` by the caller.\r\n     *\r\n     * This is an alternative to {approve} that can be used as a mitigation for\r\n     * problems described in {IERC20-approve}.\r\n     *\r\n     * Emits an {Approval} event indicating the updated allowance.\r\n     *\r\n     * Requirements:\r\n     *\r\n     * - `spender` cannot be the zero address.\r\n     */\r\n    function increaseAllowance(address spender, uint256 addedValue) public virtual returns (bool) {\r\n        _approve(_msgSender(), spender, _allowances[_msgSender()][spender] + addedValue);\r\n        return true;\r\n    }\r\n\r\n    /**\r\n     * @dev Atomically decreases the allowance granted to `spender` by the caller.\r\n     *\r\n     * This is an alternative to {approve} that can be used as a mitigation for\r\n     * problems described in {IERC20-approve}.\r\n     *\r\n     * Emits an {Approval} event indicating the updated allowance.\r\n     *\r\n     * Requirements:\r\n     *\r\n     * - `spender` cannot be the zero address.\r\n     * - `spender` must have allowance for the caller of at least\r\n     * `subtractedValue`.\r\n     */\r\n    function decreaseAllowance(address spender, uint256 subtractedValue) public virtual returns (bool) {\r\n        uint256 currentAllowance = _allowances[_msgSender()][spender];\r\n        require(currentAllowance >= subtractedValue, \"ERC20: decreased allowance below zero\");\r\n        unchecked {\r\n            _approve(_msgSender(), spender, currentAllowance - subtractedValue);\r\n        }\r\n\r\n        return true;\r\n    }\r\n\r\n    /**\r\n     * @dev Moves `amount` of tokens from `sender` to `recipient`.\r\n     *\r\n     * This internal function is equivalent to {transfer}, and can be used to\r\n     * e.g. implement automatic token fees, slashing mechanisms, etc.\r\n     *\r\n     * Emits a {Transfer} event.\r\n     *\r\n     * Requirements:\r\n     *\r\n     * - `sender` cannot be the zero address.\r\n     * - `recipient` cannot be the zero address.\r\n     * - `sender` must have a balance of at least `amount`.\r\n     */\r\n    function _transfer(\r\n        address sender,\r\n        address recipient,\r\n        uint256 amount\r\n    ) internal virtual {\r\n        require(sender != address(0), \"ERC20: transfer from the zero address\");\r\n        require(recipient != address(0), \"ERC20: transfer to the zero address\");\r\n\r\n        _beforeTokenTransfer(sender, recipient, amount);\r\n\r\n        uint256 senderBalance = _balances[sender];\r\n        require(senderBalance >= amount, \"ERC20: transfer amount exceeds balance\");\r\n        unchecked {\r\n            _balances[sender] = senderBalance - amount;\r\n        }\r\n        _balances[recipient] += amount;\r\n\r\n        emit Transfer(sender, recipient, amount);\r\n\r\n        _afterTokenTransfer(sender, recipient, amount);\r\n    }\r\n\r\n    /** @dev Creates `amount` tokens and assigns them to `account`, increasing\r\n     * the total supply.\r\n     *\r\n     * Emits a {Transfer} event with `from` set to the zero address.\r\n     *\r\n     * Requirements:\r\n     *\r\n     * - `account` cannot be the zero address.\r\n     */\r\n    function _mint(address account, uint256 amount) internal virtual {\r\n        require(account != address(0), \"ERC20: mint to the zero address\");\r\n\r\n        _beforeTokenTransfer(address(0), account, amount);\r\n\r\n        _totalSupply += amount;\r\n        _balances[account] += amount;\r\n        emit Transfer(address(0), account, amount);\r\n\r\n        _afterTokenTransfer(address(0), account, amount);\r\n    }\r\n\r\n    /**\r\n     * @dev Destroys `amount` tokens from `account`, reducing the\r\n     * total supply.\r\n     *\r\n     * Emits a {Transfer} event with `to` set to the zero address.\r\n     *\r\n     * Requirements:\r\n     *\r\n     * - `account` cannot be the zero address.\r\n     * - `account` must have at least `amount` tokens.\r\n     */\r\n    function _burn(address account, uint256 amount) internal virtual {\r\n        require(account != address(0), \"ERC20: burn from the zero address\");\r\n\r\n        _beforeTokenTransfer(account, address(0), amount);\r\n\r\n        uint256 accountBalance = _balances[account];\r\n        require(accountBalance >= amount, \"ERC20: burn amount exceeds balance\");\r\n        unchecked {\r\n            _balances[account] = accountBalance - amount;\r\n        }\r\n        _totalSupply -= amount;\r\n\r\n        emit Transfer(account, address(0), amount);\r\n\r\n        _afterTokenTransfer(account, address(0), amount);\r\n    }\r\n\r\n    /**\r\n     * @dev Sets `amount` as the allowance of `spender` over the `owner` s tokens.\r\n     *\r\n     * This internal function is equivalent to `approve`, and can be used to\r\n     * e.g. set automatic allowances for certain subsystems, etc.\r\n     *\r\n     * Emits an {Approval} event.\r\n     *\r\n     * Requirements:\r\n     *\r\n     * - `owner` cannot be the zero address.\r\n     * - `spender` cannot be the zero address.\r\n     */\r\n    function _approve(\r\n        address owner,\r\n        address spender,\r\n        uint256 amount\r\n    ) internal virtual {\r\n        require(owner != address(0), \"ERC20: approve from the zero address\");\r\n        require(spender != address(0), \"ERC20: approve to the zero address\");\r\n\r\n        _allowances[owner][spender] = amount;\r\n        emit Approval(owner, spender, amount);\r\n    }\r\n\r\n    /**\r\n     * @dev Hook that is called before any transfer of tokens. This includes\r\n     * minting and burning.\r\n     *\r\n     * Calling conditions:\r\n     *\r\n     * - when `from` and `to` are both non-zero, `amount` of ``from``'s tokens\r\n     * will be transferred to `to`.\r\n     * - when `from` is zero, `amount` tokens will be minted for `to`.\r\n     * - when `to` is zero, `amount` of ``from``'s tokens will be burned.\r\n     * - `from` and `to` are never both zero.\r\n     *\r\n     * To learn more about hooks, head to xref:ROOT:extending-contracts.adoc#using-hooks[Using Hooks].\r\n     */\r\n    function _beforeTokenTransfer(\r\n        address from,\r\n        address to,\r\n        uint256 amount\r\n    ) internal virtual {}\r\n\r\n    /**\r\n     * @dev Hook that is called after any transfer of tokens. This includes\r\n     * minting and burning.\r\n     *\r\n     * Calling conditions:\r\n     *\r\n     * - when `from` and `to` are both non-zero, `amount` of ``from``'s tokens\r\n     * has been transferred to `to`.\r\n     * - when `from` is zero, `amount` tokens have been minted for `to`.\r\n     * - when `to` is zero, `amount` of ``from``'s tokens have been burned.\r\n     * - `from` and `to` are never both zero.\r\n     *\r\n     * To learn more about hooks, head to xref:ROOT:extending-contracts.adoc#using-hooks[Using Hooks].\r\n     */\r\n    function _afterTokenTransfer(\r\n        address from,\r\n        address to,\r\n        uint256 amount\r\n    ) internal virtual {}\r\n}\r\n\r\n// File: https://github.com/OpenZeppelin/openzeppelin-contracts/blob/master/contracts/token/ERC20/extensions/ERC20Pausable.sol\r\n\r\n\r\n\r\npragma solidity ^0.8.0;\r\n\r\n\r\n\r\n/**\r\n * @dev ERC20 token with pausable token transfers, minting and burning.\r\n *\r\n * Useful for scenarios such as preventing trades until the end of an evaluation\r\n * period, or having an emergency switch for freezing all token transfers in the\r\n * event of a large bug.\r\n */\r\nabstract contract ERC20Pausable is ERC20, Pausable {\r\n    /**\r\n     * @dev See {ERC20-_beforeTokenTransfer}.\r\n     *\r\n     * Requirements:\r\n     *\r\n     * - the contract must not be paused.\r\n     */\r\n    function _beforeTokenTransfer(\r\n        address from,\r\n        address to,\r\n        uint256 amount\r\n    ) internal virtual override {\r\n        super._beforeTokenTransfer(from, to, amount);\r\n\r\n        require(!paused(), \"ERC20Pausable: token transfer while paused\");\r\n    }\r\n}\r\n\r\n// File: VHC.sol\r\n\r\n\r\npragma solidity ^0.8.4;\r\n\r\n\r\n\r\ncontract VaultHillCity is ERC20Pausable, Ownable {\r\n    constructor() ERC20(\"Vault Hill City\", \"VHC\") {\r\n        _mint(msg.sender, 340000000 * 10 ** uint256(decimals()));\r\n    }\r\n    function burnTokens(uint256 _amount) public {\r\n        _burn(msg.sender, _amount);\r\n    }\r\n    \r\n    function freezeTransfers() external onlyOwner{\r\n        _pause();\r\n    }\r\n    \r\n    function unFreezeTransfers() external onlyOwner{\r\n        _unpause();\r\n    }\r\n}",
  "sourcePath": "I:\\Vault Hill Limited\\ERC-20 Contract\\contracts\\VaultHillCity.sol",
  "compiler": {
    "name": "solc",
    "version": "0.8.4+commit.c7e474f2.Emscripten.clang"
  },
  "schemaVersion": "3.4.2",
  "updatedAt": "2021-09-07T13:48:47.215Z",
  "devdoc": {
    "kind": "dev",
    "methods": {
      "allowance(address,address)": {
        "details": "See {IERC20-allowance}."
      },
      "approve(address,uint256)": {
        "details": "See {IERC20-approve}. Requirements: - `spender` cannot be the zero address."
      },
      "balanceOf(address)": {
        "details": "See {IERC20-balanceOf}."
      },
      "decimals()": {
        "details": "Returns the number of decimals used to get its user representation. For example, if `decimals` equals `2`, a balance of `505` tokens should be displayed to a user as `5.05` (`505 / 10 ** 2`). Tokens usually opt for a value of 18, imitating the relationship between Ether and Wei. This is the value {ERC20} uses, unless this function is overridden; NOTE: This information is only used for _display_ purposes: it in no way affects any of the arithmetic of the contract, including {IERC20-balanceOf} and {IERC20-transfer}."
      },
      "decreaseAllowance(address,uint256)": {
        "details": "Atomically decreases the allowance granted to `spender` by the caller. This is an alternative to {approve} that can be used as a mitigation for problems described in {IERC20-approve}. Emits an {Approval} event indicating the updated allowance. Requirements: - `spender` cannot be the zero address. - `spender` must have allowance for the caller of at least `subtractedValue`."
      },
      "increaseAllowance(address,uint256)": {
        "details": "Atomically increases the allowance granted to `spender` by the caller. This is an alternative to {approve} that can be used as a mitigation for problems described in {IERC20-approve}. Emits an {Approval} event indicating the updated allowance. Requirements: - `spender` cannot be the zero address."
      },
      "name()": {
        "details": "Returns the name of the token."
      },
      "owner()": {
        "details": "Returns the address of the current owner."
      },
      "paused()": {
        "details": "Returns true if the contract is paused, and false otherwise."
      },
      "renounceOwnership()": {
        "details": "Leaves the contract without owner. It will not be possible to call `onlyOwner` functions anymore. Can only be called by the current owner. NOTE: Renouncing ownership will leave the contract without an owner, thereby removing any functionality that is only available to the owner."
      },
      "symbol()": {
        "details": "Returns the symbol of the token, usually a shorter version of the name."
      },
      "totalSupply()": {
        "details": "See {IERC20-totalSupply}."
      },
      "transfer(address,uint256)": {
        "details": "See {IERC20-transfer}. Requirements: - `recipient` cannot be the zero address. - the caller must have a balance of at least `amount`."
      },
      "transferFrom(address,address,uint256)": {
        "details": "See {IERC20-transferFrom}. Emits an {Approval} event indicating the updated allowance. This is not required by the EIP. See the note at the beginning of {ERC20}. Requirements: - `sender` and `recipient` cannot be the zero address. - `sender` must have a balance of at least `amount`. - the caller must have allowance for ``sender``'s tokens of at least `amount`."
      },
      "transferOwnership(address)": {
        "details": "Transfers ownership of the contract to a new account (`newOwner`). Can only be called by the current owner."
      }
    },
    "version": 1
  },
  "userdoc": {
    "kind": "user",
    "methods": {},
    "version": 1
  }
}